:100000000C9458000C9477000C9477000C947700B3
:100010000C9477000C9477000C9477000C94770084
:100020000C9477000C9477000C9477000C94770074
:100030000C9477000C943F010C9477000C9477009B
:100040000C9477000C9477000C9477000C94770054
:100050000C9477000C9477000C9477000C94770044
:100060000C9477000C9477000C9477000C94770034
:100070000C9477000C9477000C9477000C94770024
:100080000C9477000C9477000C9477001D022D02DD
:10009000460268028A02AC02CE02F00212033B035F
:1000A000410348034F0356035D0364036B0372036C
:1000B00011241FBECFEFD0E4DEBFCDBF11E0A0E022
:1000C000B1E0EEE7FAE000E00BBF02C007900D924E
:1000D000A231B107D9F721E0A2E1B1E001C01D9240
:1000E000AE31B207E1F70E947F030C943D050C94FA
:1000F000000040E050E00CC000002F5F3F4F02C006
:1001000020E030E0273063E03607B4F34F5F5F4F05
:1001100048175907ACF308959BB19F7B9BB988B9E9
:100120008BB180688BB900008BB18F778BB982E07F
:1001300090E00E947900089581E00E948C0008956B
:10014000813120F481580E948C00089581550E94CD
:100150008C00089584E690E00E94790088E30E9474
:100160008C0086E00E948C008FE00E948C0081E071
:100170000E948C008AE090E00E94790008959BB173
:1001800090649BB988B98BB180688BB900008BB142
:100190008F778BB981E090E00E9479000895EF920B
:1001A000FF920F931F93CF93DF93182FEB010E94C1
:1001B0009C000EC001E0010F812F0E94A0007E0173
:1001C0008FEFE81AF80A88810E94BF00102FE7011C
:1001D00088818111EFCFDF91CF911F910F91FF9017
:1001E000EF900895CF93C82F8A3019F48DE00E94C4
:1001F000F2008091C00085FFFCCFC093C60080E074
:1002000090E0CF91089560930E0170930F01809359
:100210001001909311016093130170931401809366
:1002200015019093160108958BE0809381008DE76E
:1002300090E0909389008093880082E080936F0023
:10024000109285001092840080910E0190910F0110
:10025000A0911001B09111018093130190931401AA
:10026000A0931501B09316018FB780688FBF0895D2
:1002700010928100089581E08093170108951F92E4
:100280000F920FB60F9211240BB60F922F933F933C
:100290004F935F936F937F938F939F93AF93BF938E
:1002A000EF93FF938091130190911401A091150198
:1002B000B09116010197A109B109809313019093A0
:1002C0001401A0931501B0931601892B8A2B8B2B57
:1002D00091F40E943B0180910E0190910F01A09139
:1002E0001001B09111018093130190931401A09318
:1002F0001501B0931601FF91EF91BF91AF919F91BE
:100300008F917F916F915F914F913F912F910F90BE
:100310000BBE0F900FBE0F901F901895CF92DF92DB
:10032000EF92FF926B017C016091180170911901AD
:1003300080911A0190911B01A70196010E94A903C7
:10034000882309F458C020E030E0A901C701B601B4
:100350000E94A903811106C0E1E9F0E08081887064
:10036000808305C0E1E9F0E080818360808328E537
:1003700039E344E75FE3C701B6010E94A90388237C
:100380003CF48FEF9FEF909399008093980027C0E3
:1003900020E034E244EF56E4C701B6010E94CB04EA
:1003A00018162CF4109299001092980018C020E0B2
:1003B00030E040E053E4C701B6010E94D0049B0145
:1003C000AC0160E074E284EF9AE40E94AE030E9404
:1003D0002004615071097093990060939800109205
:1003E000950010929400C0921801D0921901E092E9
:1003F0001A01F0921B01FF90EF90DF90CF900895CB
:1004000080E4809390008BE08093910060E070E046
:10041000CB010E948E0108951092900010929100DD
:100420000895E0911C01F0911D01E930F10508F0FB
:1004300012C1EA5BFF4F0C94A0038091120181303E
:1004400039F481E090E090931D0180931C0107C175
:1004500010921D0110921C0102C180911201823084
:1004600039F482E090E090931D0180931C01F7C065
:10047000813029F410921D0110921C01F0C081E01E
:1004800090E090931D0180931C01E9C080911201BE
:10049000823039F483E090E090931D0180931C0139
:1004A000DEC0843039F481E090E090931D018093A8
:1004B0001C01D5C0813029F410921D0110921C013D
:1004C000CEC082E090E090931D0180931C01C7C0D4
:1004D00080911201823039F484E090E090931D0104
:1004E00080931C01BCC0843039F482E090E090938A
:1004F0001D0180931C01B3C0813029F410921D01AD
:1005000010921C01ACC083E090E090931D01809399
:100510001C01A5C080911201823039F485E090E081
:1005200090931D0180931C019AC0843039F483E0BC
:1005300090E090931D0180931C0191C0813029F4BB
:1005400010921D0110921C018AC084E090E09093EB
:100550001D0180931C0183C080911201823039F407
:1005600086E090E090931D0180931C0178C0843058
:1005700039F484E090E090931D0180931C016FC0DA
:10058000813029F410921D0110921C0168C085E091
:1005900090E090931D0180931C0161C08091120135
:1005A000823039F487E090E090931D0180931C0124
:1005B00056C0843039F485E090E090931D0180931B
:1005C0001C014DC0813029F410921D0110921C01B4
:1005D00046C086E090E090931D0180931C013FC0CF
:1005E00080911201823039F488E090E090931D01EF
:1005F00080931C0134C0843039F486E090E09093FD
:100600001D0180931C012BC0813029F410921D0123
:1006100010921C0124C087E090E090931D0180930C
:100620001C011DC080911201843039F487E090E0F4
:1006300090931D0180931C0112C0813029F4109207
:100640001D0110921C010BC088E090E090931D01E9
:1006500080931C0104C010921D0110921C01E091B6
:100660001C01F0911D01E930F10508F042C0E15B89
:10067000FF4F0C94A00360E070E0CB010E948E015C
:10068000089564EA70ED82E893E40E948E01089573
:100690006BE774ED82E993E40E948E01089564EAA9
:1006A00070ED84EA93E40E948E01089561E77DE98C
:1006B0008EEA93E40E948E01089560E070E084EC7D
:1006C00093E40E948E01089560E070E08CED93E465
:1006D0000E948E01089564EA70EF86EF93E40E9411
:1006E0008E01089560E070ED82E094E40E948E0136
:1006F000089560E070E0CB010E948E01089511B86A
:100700008FEF82B984B915B864EF71E080E090E0B2
:100710000E9403010E9414010E94000210921D0118
:1007200010921C0180B180958770809312010E9405
:100730001102809117018823E1F310921701F2CF83
:10074000EE0FFF1F0024001C0BBE0790F691E02D5A
:1007500009940E94560408F481E008950E94C2039F
:100760000C9491040E948A0458F00E94830440F083
:1007700029F45F3F29F00C947A0451110C94C504BC
:100780000C9480040E94A20468F39923B1F35523CA
:1007900091F3951B550BBB27AA2762177307840794
:1007A00038F09F5F5F4F220F331F441FAA1FA9F32A
:1007B00035D00E2E3AF0E0E832D091505040E69518
:1007C000001CCAF72BD0FE2F29D0660F771F881F79
:1007D000BB1F261737074807AB07B0E809F0BB0B6C
:1007E000802DBF01FF2793585F4F3AF09E3F510580
:1007F00078F00C947A040C94C5045F3FE4F3983EBF
:10080000D4F3869577956795B795F7959F5FC9F768
:10081000880F911D9695879597F90895E1E0660FE9
:10082000771F881FBB1F621773078407BA0720F062
:10083000621B730B840BBA0BEE1F88F7E0950895CB
:100840000E9427046894B1110C94C50408950E9475
:10085000AA0488F09F5798F0B92F9927B751B0F0A4
:10086000E1F0660F771F881F991F1AF0BA95C9F734
:1008700014C0B13091F00E94C404B1E008950C940A
:10088000C404672F782F8827B85F39F0B93FCCF3BD
:10089000869577956795B395D9F73EF490958095B1
:1008A000709561957F4F8F4F9F4F0895990F000866
:1008B000550FAA0BE0E8FEEF16161706E807F90732
:1008C000C0F012161306E407F50798F0621B730BCD
:1008D000840B950B39F40A2661F0232B242B252B4E
:1008E00021F408950A2609F4A140A6958FEF811DF1
:1008F000811D089597F99F6780E870E060E0089592
:100900009FEF80EC089500240A9416161706180627
:100910000906089500240A94121613061406050603
:100920000895092E0394000C11F4882352F0BB0F94
:1009300040F4BF2B11F460FF04C06F5F7F4F8F4FF7
:100940009F4F089557FD9058440F551F59F05F3F32
:1009500071F04795880F97FB991F61F09F3F79F0E1
:1009600087950895121613061406551FF2CF469563
:10097000F1DF08C0161617061806991FF1CF8695E5
:100980007105610508940895E894BB2766277727C9
:10099000CB0197F908950E94560408F48FEF08954B
:1009A0000E94E3040C9491040E94830438F00E9496
:1009B0008A0420F0952311F00C947A040C9480049E
:1009C00011240C94C5040E94A20470F3959FC1F3F6
:1009D000950F50E0551F629FF001729FBB27F00DED
:1009E000B11D639FAA27F00DB11DAA1F649F662742
:1009F000B00DA11D661F829F2227B00DA11D621F91
:100A0000739FB00DA11D621F839FA00D611D221F4A
:100A1000749F3327A00D611D231F849F600D211D2E
:100A2000822F762F6A2F11249F5750409AF0F1F0B1
:100A300088234AF0EE0FFF1FBB1F661F771F881F1A
:100A400091505040A9F79E3F510580F00C947A04D4
:100A50000C94C5045F3FE4F3983ED4F386957795F4
:100A60006795B795F795E7959F5FC1F7FE2B880FC0
:0E0A7000911D9695879597F90895F894FFCFFC
:100A7E000000000200000000F20000000000010073
:020A8E00000066
:00000001FF
