:100000000C9458000C9477000C9477000C947700B3
:100010000C9477000C9477000C9477000C94770084
:100020000C9477000C9477000C9477000C94770074
:100030000C9477000C943F010C9477000C9477009B
:100040000C9477000C9477000C9477000C94770054
:100050000C9477000C9477000C9477000C94770044
:100060000C9477000C9477000C9477000C94770034
:100070000C9477000C9477000C9477000C94770024
:100080000C9477000C9477000C9477001F023502D3
:1000900064026B0272027902800287028E02A5025C
:1000A000E702B102B802BF02C602CD02D402DB02EF
:1000B00011241FBECFEFD0E4DEBFCDBF11E0A0E022
:1000C000B1E0EEE3F9E000E00BBF02C007900D9253
:1000D000AA35B107D9F721E0AAE5B1E001C01D9228
:1000E000A836B207E1F70E94E8020C949D040C9434
:1000F000000040E050E00CC000002F5F3F4F02C006
:1001000020E030E0273063E03607B4F34F5F5F4F05
:1001100048175907ACF308959BB19F7B9BB988B9E9
:100120008BB180688BB900008BB18F778BB982E07F
:1001300090E00E947900089581E00E948C0008956B
:10014000813120F481580E948C00089581550E94CD
:100150008C00089584E690E00E94790088E30E9474
:100160008C0086E00E948C008FE00E948C0081E071
:100170000E948C008AE090E00E94790008959BB173
:1001800090649BB988B98BB180688BB900008BB142
:100190008F778BB981E090E00E9479000895EF920B
:1001A000FF920F931F93CF93DF93182FEB010E94C1
:1001B0009C000EC001E0010F812F0E94A0007E0173
:1001C0008FEFE81AF80A88810E94BF00102FE7011C
:1001D00088818111EFCFDF91CF911F910F91FF9017
:1001E000EF900895CF93C82F8A3019F48DE00E94C4
:1001F000F2008091C00085FFFCCFC093C60080E074
:1002000090E0CF91089560935601709357018093C9
:1002100058019093590160935A0170935B01809348
:100220005C0190935D0108958BE0809381008DE7E0
:1002300090E0909389008093880082E080936F0023
:100240001092850010928400809156019091570180
:10025000A0915801B091590180935A0190935B018C
:10026000A0935C01B0935D018FB780688FBF089544
:1002700010928100089581E080935E0108951F929D
:100280000F920FB60F9211240BB60F922F933F933C
:100290004F935F936F937F938F939F93AF93BF938E
:1002A000EF93FF9380915A0190915B01A0915C01C3
:1002B000B0915D010197A109B10980935A01909312
:1002C0005B01A0935C01B0935D01892B8A2B8B2B82
:1002D00091F40E943B018091560190915701A091A9
:1002E0005801B091590180935A0190935B01A093FA
:1002F0005C01B0935D01FF91EF91BF91AF919F9130
:100300008F917F916F915F914F913F912F910F90BE
:100310000BBE0F900FBE0F901F901895CF92DF92DB
:10032000EF92FF926B017C0160915F01709160011F
:100330008091610190916201A70196010E940903D9
:10034000882309F458C020E030E0A901C701B601B4
:100350000E940903811106C0E1E9F0E08081887004
:10036000808305C0E1E9F0E080818360808328E537
:1003700039E344E75FE3C701B6010E94090388231C
:100380003CF48FEF9FEF909399008093980027C0E3
:1003900020E034E244EF56E4C701B6010E942B048A
:1003A00018162CF4109299001092980018C020E0B2
:1003B00030E040E053E4C701B6010E9430049B01E5
:1003C000AC0160E074E284EF9AE40E940E030E94A4
:1003D00080036150710970939900609398001092A6
:1003E000950010929400C0925F01D0926001E0925B
:1003F0006101F0926201FF90EF90DF90CF9008953D
:1004000080E4809390008BE08093910060E070E046
:10041000CB010E948E0108951092900010929100DD
:10042000089580B18170E0916601F0916701E93033
:10043000F10508F07AC0EA5BFF4F0C9400038111CC
:100440000FC0E0916401F0916501E05DFE4F808195
:10045000082E000C990B909367018093660169C088
:10046000109267011092660164C020916301622FAF
:1004700070E08091640190916501FC01EE0FFF1F17
:10048000E050FF4F40815181641775079CF0019641
:10049000909365018093640110926301FC01E05D1B
:1004A000FE4F8081082E000C990B9093670180937A
:1004B00066013FC02F5F2093630181E090E090933D
:1004C00067018093660135C081E090E090936701F9
:1004D000809366012EC081E090E090936701809345
:1004E000660127C081E090E09093670180936601E8
:1004F00020C081E090E0909367018093660119C06D
:1005000081E090E0909367018093660112C081E0E2
:1005100090E090936701809366010BC081E090E0CA
:10052000909367018093660104C010926701109256
:100530006601E0916601F0916701E930F10508F08C
:1005400041C0E15BFF4F0C940003109265011092D3
:1005500064011092630160E070E0CB010E948E01A3
:10056000089560E070E08CED93E40E948E010895A0
:1005700064EA70EF86EF93E40E948E01089564EAC6
:1005800070ED82E893E40E948E0108956BE774EDAC
:1005900082E993E40E948E01089564EA70ED84EA92
:1005A00093E40E948E01089561E77DE98EEA93E469
:1005B0000E948E01089560E070E084EC93E40E9454
:1005C0008E01089560E070E0CB010E948E010895D5
:1005D00011B88FEF82B984B915B86AE070E080E095
:1005E00090E00E9403010E9414010E9400020E94F8
:1005F000110280915E018823E1F310925E01F7CF32
:10060000EE0FFF1F0024001C0BBE0790F691E02D9B
:1006100009940E94B60308F481E008950E94220321
:100620000C94F1030E94EA0358F00E94E30340F0A7
:1006300029F45F3F29F00C94DA0351110C9425043E
:100640000C94E0030E94020468F39923B1F355234C
:1006500091F3951B550BBB27AA27621773078407D5
:1006600038F09F5F5F4F220F331F441FAA1FA9F36B
:1006700035D00E2E3AF0E0E832D091505040E69559
:10068000001CCAF72BD0FE2F29D0660F771F881FBA
:10069000BB1F261737074807AB07B0E809F0BB0BAD
:1006A000802DBF01FF2793585F4F3AF09E3F5105C1
:1006B00078F00C94DA030C9425045F3FE4F3983E41
:1006C000D4F3869577956795B795F7959F5FC9F7AA
:1006D000880F911D9695879597F90895E1E0660F2B
:1006E000771F881FBB1F621773078407BA0720F0A4
:1006F000621B730B840BBA0BEE1F88F7E09508950D
:100700000E9487036894B1110C94250408950E94F7
:100710000A0488F09F5798F0B92F9927B751B0F085
:10072000E1F0660F771F881F991F1AF0BA95C9F775
:1007300014C0B13091F00E942404B1E008950C94EB
:100740002404672F782F8827B85F39F0B93FCCF39E
:10075000869577956795B395D9F73EF490958095F2
:10076000709561957F4F8F4F9F4F0895990F0008A7
:10077000550FAA0BE0E8FEEF16161706E807F90773
:10078000C0F012161306E407F50798F0621B730B0E
:10079000840B950B39F40A2661F0232B242B252B8F
:1007A00021F408950A2609F4A140A6958FEF811D32
:1007B000811D089597F99F6780E870E060E00895D3
:1007C0009FEF80EC089500240A9416161706180669
:1007D0000906089500240A94121613061406050645
:1007E0000895092E0394000C11F4882352F0BB0FD6
:1007F00040F4BF2B11F460FF04C06F5F7F4F8F4F39
:100800009F4F089557FD9058440F551F59F05F3F73
:1008100071F04795880F97FB991F61F09F3F79F022
:1008200087950895121613061406551FF2CF4695A4
:10083000F1DF08C0161617061806991FF1CF869526
:100840007105610508940895E894BB27662777270A
:10085000CB0197F908950E94B60308F48FEF08952D
:100860000E9443040C94F1030E94E30338F00E94B9
:10087000EA0320F0952311F00C94DA030C94E003C2
:1008800011240C9425040E94020470F3959FC1F377
:10089000950F50E0551F629FF001729FBB27F00D2E
:1008A000B11D639FAA27F00DB11DAA1F649F662783
:1008B000B00DA11D661F829F2227B00DA11D621FD2
:1008C000739FB00DA11D621F839FA00D611D221F8C
:1008D000749F3327A00D611D231F849F600D211D70
:1008E000822F762F6A2F11249F5750409AF0F1F0F3
:1008F00088234AF0EE0FFF1FBB1F661F771F881F5C
:1009000091505040A9F79E3F510580F00C94DA03B6
:100910000C9425045F3FE4F3983ED4F386957795D5
:100920006795B795F795E7959F5FC1F7FE2B880F01
:0E093000911D9695879597F90895F894FFCF3D
:10093E002800280028000F001400140014000F00D7
:10094E0014000F0014000F000F000F000F000F0017
:10095E000F000F000F000F000F000F000F000A0016
:10096E00060802080202020504030203030506023A
:10097E00080707060708070800000002000000002D
:0A098E00F20000000000010000006C
:00000001FF
