:100000000C9446000C9465000C9465000C946500FB
:100010000C9465000C9465000C9465000C946500CC
:100020000C9465000C9465000C9465000C946500BC
:100030000C9465000C94B4000C9465000C9465005D
:100040000C9465000C9465000C9465000C9465009C
:100050000C9465000C9465000C9465000C9465008C
:100060000C9465000C9465000C9465000C9465007C
:100070000C9465000C9465000C9465000C9465006C
:100080000C9465000C9465000C94650011241FBE4F
:10009000CFEFD0E4DEBFCDBF11E0A0E0B1E0E4EBF4
:1000A000F3E000E00BBF02C007900D92A631B1074C
:1000B000D9F721E0A6E1B1E001C01D92A932B20753
:1000C000E1F70E94A8010C94D8010C940000CF9392
:1000D000C82F8A3019F48DE00E9467008091C0001B
:1000E00085FFFCCFC093C60080E090E0CF910895DB
:1000F00060930201709303018093040190930501C2
:1001000060931A0170931B0180931C0190931D0151
:1001100008958BE0809381008DE790E090938900B3
:100120008093880082E080936F0010928500109287
:1001300084008091020190910301A0910401B0918B
:10014000050180931A0190931B01A0931C01B093A9
:100150001D018FB780688FBF0895109281000895A8
:1001600081E080931E0108951F920F920FB60F92A7
:1001700011240BB60F922F933F934F935F936F937E
:100180007F938F939F93AF93BF93EF93FF93809150
:100190001A0190911B01A0911C01B0911D010197C2
:1001A000A109B10980931A0190931B01A0931C012E
:1001B000B0931D01892B8A2B8B2B91F40E94B000E8
:1001C0008091020190910301A0910401B091050179
:1001D00080931A0190931B01A0931C01B0931D0101
:1001E000FF91EF91BF91AF919F918F917F916F910F
:1001F0005F914F913F912F910F900BBE0F900FBECB
:100200000F901F90189580912101909122018130CB
:100210009105E1F018F00297F1F022C080911701EA
:1002200090910101981738F081E090E090932201BD
:100230008093210119C0909100019817A8F082E0E5
:1002400090E090932201809321010EC01092220130
:100250001092210109C0109222011092210104C0C4
:10026000109222011092210180912101909122018E
:100270008130910519F0029751F0089581E0809343
:100280000101809117018F5F8093170108951092EB
:100290000001809117018F5F80931701089580916D
:1002A0002501909126018130910591F0B0F480B143
:1002B000887F39F482E090E09093260180932501B5
:1002C00010C081E090E0909326018093250109C041
:1002D000109226011092250104C01092260110925E
:1002E000250180912501909126018130910519F019
:1002F000029729F0089581E08093160108951092E5
:100300001601089508958091230190912401892B6D
:1003100021F01092240110922301089580911F0171
:1003200090912001009719F0019741F00CC081E0F5
:1003300090E09093200180931F0108951092200176
:1003400010921F0108951092200110921F0108952C
:1003500011B88FEF82B984B915B864E670E080E017
:1003600090E00E9478000E94890010922201109271
:10037000210110922601109225011092280110925D
:100380002701109224011092230110922001109253
:100390001F010E9403010E944F010E9483010E94DD
:1003A0008E0180911E018823E1F310921E01F1CF8E
:0403B000F894FFCFEF
:1003B40009010100000000000002000000006700C5
:0603C400000000006400CF
:00000001FF
