:100000000C9446000C945D000C945D000C945D0013
:100010000C945D000C945D000C945D000C945D00EC
:100020000C945D000C945D000C945D000C945D00DC
:100030000C945D000C945D000C945D000C945D00CC
:100040000C945D000C945D000C945D000C945D00BC
:100050000C945D000C945D000C945D000C945D00AC
:100060000C945D000C945D000C945D000C945D009C
:100070000C945D000C945D000C945D000C945D008C
:100080000C945D000C945D000C945D0011241FBE67
:10009000CFEFD0E4DEBFCDBF11E0A0E0B1E0E2E8F9
:1000A000F1E000E00BBF02C007900D92AE30B10747
:1000B000D9F70E9470000C94BF000C940000CF93FD
:1000C000C82F8A3019F48DE00E945F008091C00033
:1000D00085FFFCCFC093C60080E090E0CF910895EB
:1000E00011B88FEF82B987B918B890B1907180B10B
:1000F000282F207280B1382F307480B18F708530F6
:1001000018F440E448B901C018B84FEF480F423026
:1001100020F488B1806288B926C04DEF480F423084
:1001200020F488B1806388B91EC04BEF480F42307D
:1001300020F488B1886388B916C049EF480F43306E
:1001400020F488B18C6388B90EC046EF480F433065
:1001500020F488B18E6388B906C08D50833018F4BE
:1001600088B18F6388B9903109F0BFCF203209F090
:10017000BCCF3111BACF88B1806888B9B6CFF894B6
:02018000FFCFAF
:0E01820000000002000000005F00000000000E
:00000001FF
