:100000000C9446000C9465000C9465000C946500FB
:100010000C9465000C9465000C9465000C946500CC
:100020000C9465000C9465000C9465000C946500BC
:100030000C9465000C9465000C9465000C946500AC
:100040000C9465000C9465000C9465000C9465009C
:100050000C9465000C9465000C9465000C9465008C
:100060000C9465000C9465000C9465000C9465007C
:100070000C9465000C9465000C9465000C9465006C
:100080000C9465000C9465000C94650011241FBE4F
:10009000CFEFD0E4DEBFCDBF11E0A0E0B1E0E0E201
:1000A000F2E000E00BBF02C007900D92AE30B10746
:1000B000D9F711E0AEE0B1E001C01D92A031B10767
:1000C000E1F70E94F2000C940E010C940000CF9313
:1000D000DF9300D01F92CDB7DEB789837B836A831D
:1000E00089818A3031F48A819B81BC018DE00E9434
:1000F000670080EC90E0FC018081882F90E08072A6
:1001000099270097B1F386EC90E02981FC012083C8
:1001100080E090E00F900F900F90DF91CF910895C5
:10012000CF93DF931F92CDB7DEB7898380E290E053
:10013000FC0180818778898380910E0190910F0165
:100140008130910589F08130910538F08230910538
:10015000A9F08330910531F12FC083E090E09093B6
:100160000F0180930E0128C08981823031F482E032
:1001700090E090930F0180930E011EC0898180381A
:1001800039F483E090E090930F0180930E0109C051
:100190008981813031F484E090E090930F01809365
:1001A0000E010AC08981843031F481E090E090939F
:1001B0000F0180930E01000080910E0190910F01BC
:1001C0008430910531F485E290E021E0FC01208348
:1001D00005C085E290E0FC01108200000F90DF91E5
:1001E000CF910895CF93DF931F92CDB7DEB781E211
:1001F00090E0FC01108282E290E02FEFFC0120836E
:1002000084E290E02FEFFC01208385E290E0FC0186
:100210001082198289810E949000FCCFF894FFCF50
:0E022000000000020000000067000000000067
:00000001FF
