:100000000C9446000C9465000C9465000C946500FB
:100010000C9465000C9465000C9465000C946500CC
:100020000C9465000C9465000C9465000C946500BC
:100030000C9465000C9465000C9465000C946500AC
:100040000C9465000C9465000C9465000C9465009C
:100050000C9465000C9465000C9465000C9465008C
:100060000C9465000C9465000C9465000C9465007C
:100070000C9465000C9465000C9465000C9465006C
:100080000C9465000C9465000C94650011241FBE4F
:10009000CFEFD0E4DEBFCDBF11E0A0E0B1E0ECE3F4
:1000A000F3E000E00BBF02C007900D92AE30B10745
:1000B000D9F711E0AEE0B1E001C01D92A031B10767
:1000C000E1F70E947B010C949C010C940000CF93FB
:1000D000DF9300D01F92CDB7DEB789837B836A831D
:1000E00089818A3031F48A819B81BC018DE00E9434
:1000F000670080EC90E0FC018081882F90E08072A6
:1001000099270097B1F386EC90E02981FC012083C8
:1001100080E090E00F900F900F90DF91CF910895C5
:10012000CF93DF9300D000D0CDB7DEB78C8381E0D2
:10013000898382E08A8381E08B838C81882F90E0A1
:1001400001979E012F5F3F4F820F931FFC0120817B
:1001500080E290E0FC018081281711F481E001C069
:1001600080E00F900F900F900F90DF91CF91089546
:10017000CF93DF9300D0CDB7DEB789836A8380E267
:1001800090E0FC0180818778898380910E019091B5
:100190000F0182309105E9F08330910530F400972A
:1001A00089F08130910589F187C08430910509F487
:1001B00068C08430910508F451C08530910509F478
:1001C0006AC07AC081E090E090930F0180930E01A5
:1001D0007AC08981843039F483E090E090930F01F4
:1001E00080930E0111C08981803839F481E090E05C
:1001F00090930F0180930E0107C081E090E09093EF
:100200000F0180930E015FC05EC08981843019F4B4
:100210008A81833061F48981823019F48A81833044
:1002200031F48981813051F48A818E3139F081E055
:1002300090E090930F0180930E010FC08A810E947D
:100240009000882351F08A81833039F484E090E073
:1002500090930F0180930E0136C035C0898180389C
:1002600039F481E090E090930F0180930E0109C072
:100270008981823031F481E090E090930F01809386
:100280000E018981882331F482E090E090930F0180
:1002900080930E0118C08981843039F481E090E0A8
:1002A00090930F0180930E010EC082E090E0909336
:1002B0000F0180930E0107C081E090E090930F0141
:1002C00080930E01000080910E0190910F01823009
:1002D000910539F485E290E021E0FC0120831A8247
:1002E00005C085E290E0FC01108200000F900F90A5
:1002F000DF91CF910895CF93DF9300D0CDB7DEB7D4
:1003000081E290E0FC01108282E290E02FEFFC019C
:10031000208384E290E02FEFFC01208385E290E0CF
:10032000FC0110821A82198269818A810E94B800B8
:0C03300089818F5F8983F8CFF894FFCF9C
:0E033C0000000002000000006700000000004A
:00000001FF
