:100000000C9446000C9465000C9465000C946500FB
:100010000C9465000C9465000C9465000C946500CC
:100020000C9465000C9465000C9465000C946500BC
:100030000C9465000C9465000C9465000C946500AC
:100040000C9465000C9465000C9465000C9465009C
:100050000C9465000C9465000C9465000C9465008C
:100060000C9465000C9465000C9465000C9465007C
:100070000C9465000C9465000C9465000C9465006C
:100080000C9465000C9465000C94650011241FBE4F
:10009000CFEFD0E4DEBFCDBF11E0A0E0B1E0E6E4F9
:1000A000F3E000E00BBF02C007900D92AE30B10745
:1000B000D9F711E0AEE0B1E001C01D92A031B10767
:1000C000E1F70E9483010C94A1010C940000CF93EE
:1000D000DF9300D01F92CDB7DEB789837B836A831D
:1000E00089818A3031F48A819B81BC018DE00E9434
:1000F000670080EC90E0FC018081882F90E08072A6
:1001000099270097B1F386EC90E02981FC012083C8
:1001100080E090E00F900F900F90DF91CF910895C5
:10012000CF93DF9300D01F92CDB7DEB780E290E08F
:10013000FC01808181708A8380E290E0FC018081F3
:10014000882F90E082709927959587958B8387E01B
:10015000898380910E0190910F0181309105C9F141
:100160008130910548F08230910509F44EC083300A
:10017000910509F466C090C08A81882351F48B816F
:10018000882339F483E090E090930F0180930E016F
:100190001FC08A81882351F08B81882339F481E044
:1001A00090E090930F0180930E0112C08A81882302
:1001B00051F48B81882339F082E090E090930F0115
:1001C00080930E0105C010920F0110920E0169C0BC
:1001D00068C08A81882341F48B81882329F4109296
:1001E0000F0110920E0110C08A81882341F08B818B
:1001F000882329F010920F0110920E0105C0109271
:100200000F0110920E014DC04CC08A81882341F429
:100210008B81882329F410920F0110920E0110C0D7
:100220008A81882341F08B81882329F010920F0165
:1002300010920E0105C010920F0110920E0131C0F4
:1002400030C08A81882341F08B81882329F0109265
:100250000F0110920E011FC08A81882351F08B81FB
:10026000882339F481E090E090930F0180930E0190
:1002700012C08A81882351F48B81882339F082E06F
:1002800090E090930F0180930E0105C010920F0132
:1002900010920E0106C005C010920F0110920E01BF
:1002A000000080910E0190910F018130910561F065
:1002B0008130910538F08230910571F083309105DD
:1002C00099F014C0198214C08981893020F4898181
:1002D0008F5F89830DC00CC08981882321F08981BB
:1002E0008150898305C004C0198202C019820000B0
:1002F00088E290E02981FC0120830F900F900F90FD
:10030000DF91CF910895CF93DF93CDB7DEB781E230
:1003100090E0FC01108282E290E02FEFFC0120834C
:1003200087E290E02FEFFC01208388E290E027E055
:10033000FC01208310920F0110920E010E94900088
:06034000FDCFF894FFCF91
:0E034600000000020000000067000000000040
:00000001FF
