:100000000C9446000C945D000C945D000C945D0013
:100010000C945D000C945D000C945D000C945D00EC
:100020000C945D000C945D000C945D000C945D00DC
:100030000C945D000C945D000C945D000C945D00CC
:100040000C945D000C945D000C945D000C945D00BC
:100050000C945D000C945D000C945D000C945D00AC
:100060000C945D000C945D000C945D000C945D009C
:100070000C945D000C945D000C945D000C945D008C
:100080000C945D000C945D000C945D0011241FBE67
:10009000CFEFD0E4DEBFCDBF11E0A0E0B1E0E0E201
:1000A000F1E000E00BBF02C007900D92AE30B10747
:1000B000D9F70E9470000C948E000C940000CF932E
:1000C000C82F8A3019F48DE00E945F009091C00023
:1000D00095FFFCCFC093C60080E090E0CF910895DB
:1000E00011B88FEF82B987B918B880B18F708D3091
:1000F00050F48A3050F4873050F4853050F4833017
:1001000050F080E709C08FE307C08EE305C08CE3A1
:1001100003C084E301C080E688B9E7CFF894FFCF3D
:0E01200000000002000000005F000000000070
:00000001FF
