:100000000C9446000C9465000C9465000C946500FB
:100010000C9465000C9465000C9465000C946500CC
:100020000C9465000C9465000C9465000C946500BC
:100030000C9465000C9465000C9465000C946500AC
:100040000C9465000C9465000C9465000C9465009C
:100050000C9465000C9465000C9465000C9465008C
:100060000C9465000C9465000C9465000C9465007C
:100070000C9465000C9465000C9465000C9465006C
:100080000C9465000C9465000C94650011241FBE4F
:10009000CFEFD0E4DEBFCDBF11E0A0E0B1E0E0EBF8
:1000A000F1E000E00BBF02C007900D92AE30B10747
:1000B000D9F721E0AEE0B1E001C01D92A131B20755
:1000C000E1F70E94CA000C94D6000C940000CF9374
:1000D000C82F8A3019F48DE00E9467008091C0001B
:1000E00085FFFCCFC093C60080E090E0CF910895DB
:1000F00090B181E0892781708093100120910E01D9
:1001000030910F012130310581F038F02230310576
:10011000E1F02430310559F1089518B882E090E0FB
:1001200090930F0180930E010895813039F482E09D
:1001300090E090930F0180930E01089581E090E08C
:1001400090930F0180930E010895882349F085E371
:1001500088B984E090E090930F0180930E01089598
:1001600084E090E090930F0180930E01089588231E
:1001700041F018B881E090E090930F0180930E0158
:1001800008958FEF88B984E090E090930F018093F9
:100190000E01089511B88FEF82B987B918B810927F
:1001A0000F0110920E010E947800FDCFF894FFCF4E
:0E01B0000000000200000000670000000000D8
:00000001FF
