:100000000C9446000C9465000C9465000C946500FB
:100010000C9465000C9465000C9465000C946500CC
:100020000C9465000C9465000C9465000C946500BC
:100030000C9465000C9427010C9465000C946500E9
:100040000C9465000C9465000C9465000C9465009C
:100050000C9465000C9465000C9465000C9465008C
:100060000C9465000C9465000C9465000C9465007C
:100070000C9465000C9465000C9465000C9465006C
:100080000C9465000C9465000C94650011241FBE4F
:10009000CFEFD0E4DEBFCDBF11E0A0E0B1E0EAE0F9
:1000A000F3E000E00BBF02C007900D92AE31B10744
:1000B000D9F721E0AEE1B1E001C01D92A332B20751
:1000C000E1F70E9476010C9483010C94000040E05B
:1000D00050E00CC000002F5F3F4F02C020E030E036
:1000E000273063E03607B4F34F5F5F4F4817590777
:1000F000ACF308959BB19F7B9BB988B98BB100008D
:100100008BB18F778BB982E090E00E9467000895F1
:1001100081E00E947A000895813120F481580E9484
:100120007A00089581550E947A00089584E690E04F
:100130000E94670088E30E947A0086E00E947A00AD
:100140008FE00E947A0081E00E947A008AE090E0CD
:100150000E94670008959BB188B98BB100008BB1F4
:100160008F778BB981E090E00E9467000895EF924D
:10017000FF920F931F93CF93DF93182FEB010E94F1
:1001800088000EC001E0010F812F0E948C007E01CB
:100190008FEFE81AF80A88810E94AB00102FE70160
:1001A00088818111EFCFDF91CF911F910F91FF9047
:1001B000EF900895CF93C82F8A3019F48DE00E94F4
:1001C000DA008091C00085FFFCCFC093C60080E0BC
:1001D00090E0CF91089560930001709301018093A6
:1001E00002019093030160931E0170931F0180939D
:1001F00020019093210108958BE0809381008DE789
:1002000090E0909389008093880082E080936F0053
:10021000109285001092840080910001909101015C
:10022000A0910201B091030180931E0190931F01E0
:10023000A0932001B09321018FB780688FBF0895EC
:1002400010928100089581E08093220108951F9209
:100250000F920FB60F9211240BB60F922F933F936C
:100260004F935F936F937F938F939F93AF93BF93BE
:10027000EF93FF9380911E0190911F01A0912001A7
:10028000B09121010197A109B10980931E019093BA
:100290001F01A0932001B0932101892B8A2B8B2B66
:1002A00091F40E9423018091000190910101A0919D
:1002B0000201B091030180931E0190931F01A0934E
:1002C0002001B0932101FF91EF91BF91AF919F91D8
:1002D0008F917F916F915F914F913F912F910F90EF
:1002E0000BBE0F900FBE0F901F9018958FEF8AB91D
:1002F0001BB887B918B80E94960062E171E081E0EE
:0A0300000E94B700FFCFF894FFCF72
:10030A00010000000000000200000000DA00000006
:0E031A00000048656C6C6F20576F726C6400B9
:00000001FF
