:100000000C948B000C94AA000C94AA000C94AA00E7
:100010000C94AA000C94AA000C94AA000C94AA00B8
:100020000C94AA000C94AA000C94AA000C94AA00A8
:100030000C94AA000C94F9000C94AA000C94AA0049
:100040000C94AA000C94AA000C94AA000C94AA0088
:100050000C94AA000C94AA000C94AA000C94AA0078
:100060000C94AA000C94AA000C94AA000C94AA0068
:100070000C94AA000C94AA000C94AA000C94AA0058
:100080000C94AA000C94AA000C94AA00F902D902BC
:10009000D902D902D902D902D902D902D902D90288
:1000A000D902D902D902D902D902D902D902D90278
:1000B000D902D902D902D902D902D902D902D90268
:1000C000D902D902D902D902D902D902D902D90258
:1000D000D902F502D902D902D902D902D902D9022C
:1000E000F302D902D902D902D902D902D902DB021C
:1000F000DD02DF02E302E502E702EB02ED02EF02BE
:10010000D902D902D902D902D902D902D902E1020F
:10011000E902F102F70211241FBECFEFD0E4DEBFE7
:10012000CDBF11E0A0E0B1E0EEEEF6E000E00BBFE5
:1001300002C007900D92A231B107D9F721E0A2E1E8
:10014000B1E001C01D92A731B207E1F70E94B802E9
:100150000C9475030C940000CF93C82F8A3019F4C7
:100160008DE00E94AC008091C00085FFFCCFC09361
:10017000C60080E090E0CF91089560930E017093E7
:100180000F018093100190931101609312017093FD
:100190001301809314019093150108958BE08093CF
:1001A00081008DE790E0909389008093880082E041
:1001B00080936F00109285001092840080910E0150
:1001C00090910F01A0911001B09111018093120143
:1001D00090931301A0931401B09315018FB7806819
:1001E0008FBF089510928100089581E080931601D9
:1001F00008951F920F920FB60F9211240BB60F9213
:100200002F933F934F935F936F937F938F939F931E
:10021000AF93BF93EF93FF938091120190911301DD
:10022000A0911401B09115010197A109B109809322
:10023000120190931301A0931401B0931501892B1F
:100240008A2B8B2B91F40E94F50080910E019091E6
:100250000F01A0911001B0911101809312019093B0
:100260001301A0931401B0931501FF91EF91BF9179
:10027000AF919F918F917F916F915F914F913F913E
:100280002F910F900BBE0F900FBE0F901F901895DF
:10029000442349F021E030E002C0220F331F6A9569
:1002A000E2F7822B089521E030E002C0220F331FD5
:1002B0006A95E2F720958223089521E030E002C09C
:1002C000220F331F6A95E2F78223089540E064E02D
:1002D0008FEF0E94480182B9000080B160E08095F4
:1002E0000E945D01811180C080B161E080950E9413
:1002F0005D0181117BC080B162E080950E945D014B
:10030000811176C080B163E080950E945D0181110A
:1003100071C040E065E08FEF0E94480182B90000A3
:1003200080B160E080950E945D01811165C080B15F
:1003300061E080950E945D01811160C080B162E042
:1003400080950E945D0181115BC080B163E0809562
:100350000E945D01811156C040E066E08FEF0E946F
:10036000480182B9000080B160E080950E945D0183
:1003700081114AC080B161E080950E945D018111C8
:1003800045C080B162E080950E945D01811140C04E
:1003900080B163E080950E945D0181113BC040E027
:1003A00067E08FEF0E94480182B9000080B160E0F1
:1003B00080950E945D0181112FC080B161E0809520
:1003C0000E945D0181112AC080B162E080950E9487
:1003D0005D01811125C080B163E080950E945D01BF
:1003E0008823F9F084E4089581E3089584E308956F
:1003F00087E308958AE2089582E3089585E30895E6
:1004000088E3089580E3089583E3089586E30895DB
:1004100089E3089583E2089581E4089582E40895CC
:1004200083E408950F931F93CF93DF93B62FA72FE5
:10043000F82FE92F022F132FD42FC52F04C0062F1A
:10044000172FD82FC92F6B2F7A2F8F2F9E2F202F4A
:10045000312F4D2F5C2F0E944A03B02FA12FFD2F6B
:10046000EC2F611571058105910549F7602F712FFA
:100470008D2F9C2FDF91CF911F910F91089540E018
:1004800050E00CC000002F5F3F4F02C020E030E082
:10049000273063E03607B4F34F5F5F4F48175907C3
:1004A000ACF308959BB19F7B9BB988B98BB18068F1
:1004B0008BB900008BB18F778BB982E090E00E94FE
:1004C0003F02089581E00E9452020895813120F494
:1004D00081580E945202089581550E945202089547
:1004E00084E690E00E943F0288E30E94520286E088
:1004F0000E9452028FE00E94520281E00E9452024A
:100500008AE090E00E943F0208959BB190649BB9FD
:1005100088B98BB180688BB900008BB18F778BB9AC
:1005200081E090E00E943F020895EF92FF920F93C6
:100530001F93CF93DF93182FEB010E9462020EC02E
:1005400001E0010F812F0E9466027E018FEFE81A01
:10055000F80A88810E948502102FE70188818111A5
:10056000EFCFDF91CF911F910F91FF90EF90089502
:1005700080EF81B98FE082B98FEF87B918B88AB957
:100580001BB86AE070E080E090E00E94BD000E942D
:10059000CE000E94700280E30E9485020E946601E4
:1005A00090E08534910528F4FC01EA5BFF4F0C9440
:1005B0006C03C0E01FC0C1E01DC0C2E01BC0C3E0AF
:1005C00019C0CAE017C0C4E015C0C5E013C0C6E03A
:1005D00011C0CBE00FC0C7E00DC0C8E00BC0C9E040
:1005E00009C0CCE007C0CEE005C0CFE003C0CDE03D
:1005F00001C0CFE1809116018823E1F3109216012A
:10060000CA3040F481E00E94660280E38C0F0E94B1
:100610008502C4CFCA3039F481E00E94660281E4C9
:100620000E948502BBCFCB3039F481E00E94660284
:1006300082E40E948502B2CFCC3039F481E00E947E
:10064000660283E40E948502A9CFCD3039F481E0AF
:100650000E94660284E40E948502A0CFCE3039F465
:1006600081E00E9466028AE20E94850297CFCF3025
:1006700039F481E00E94660283E20E9485028ECFF7
:10068000CF3121F481E00E94660288CF81E00E9490
:10069000660284CFA1E21A2EAA1BBB1BFD010DC06E
:1006A000AA1FBB1FEE1FFF1FA217B307E407F50722
:1006B00020F0A21BB30BE40BF50B661F771F881FFE
:1006C000991F1A9469F760957095809590959B0194
:1006D000AC01BD01CF010895EE0FFF1F0024001CE7
:0E06E0000BBE0790F691E02D0994F894FFCF21
:1006EE000000000200000000AC000000000001004D
:0206FE000000FA
:00000001FF
