:100000000C948B000C94AA000C94AA000C94AA00E7
:100010000C94AA000C94AA000C94AA000C94AA00B8
:100020000C94AA000C94AA000C94AA000C94AA00A8
:100030000C94AA000C94F9000C94AA000C94AA0049
:100040000C94AA000C94AA000C94AA000C94AA0088
:100050000C94AA000C94AA000C94AA000C94AA0078
:100060000C94AA000C94AA000C94AA000C94AA0068
:100070000C94AA000C94AA000C94AA000C94AA0058
:100080000C94AA000C94AA000C94AA00D7020803AE
:100090000803080308030803080308030803080308
:1000A00008030803080308030803080308030803F8
:1000B00008030803080308030803080308030803E8
:1000C00008030803080308030803080308030803D8
:1000D00008030203080308030803080308030803CE
:1000E000FD02080308030803080308030003D902FC
:1000F000DC02DF02E502E802EB02F102F402F702A1
:100100000803080308030803080308030803E202BE
:10011000EE02FA02050311241FBECFEFD0E4DEBFCA
:10012000CDBF11E0A0E0B1E0E2E6F7E000E00BBFF8
:1001300002C007900D92AA33B107D9F721E0AAE3D4
:10014000B1E001C01D92AE34B207E1F70E940D0389
:100150000C94AF030C940000CF93C82F8A3019F48D
:100160008DE00E94AC008091C00085FFFCCFC09361
:10017000C60080E090E0CF91089560930F017093E6
:100180001001809311019093120160933A017093D2
:100190003B0180933C0190933D0108958BE0809357
:1001A00081008DE790E0909389008093880082E041
:1001B00080936F00109285001092840080910F014F
:1001C00090911001A0911101B091120180933A0118
:1001D00090933B01A0933C01B0933D018FB78068A1
:1001E0008FBF089510928100089581E080933E01B1
:1001F00008951F920F920FB60F9211240BB60F9213
:100200002F933F934F935F936F937F938F939F931E
:10021000AF93BF93EF93FF9380913A0190913B018D
:10022000A0913C01B0913D010197A109B1098093D2
:100230003A0190933B01A0933C01B0933D01892B7F
:100240008A2B8B2B91F40E94F50080910F019091E5
:100250001001A0911101B091120180933A01909385
:100260003B01A0933C01B0933D01FF91EF91BF9101
:10027000AF919F918F917F916F915F914F913F913E
:100280002F910F900BBE0F900FBE0F901F901895DF
:10029000442349F021E030E002C0220F331F6A9569
:1002A000E2F7822B089521E030E002C0220F331FD5
:1002B0006A95E2F720958223089521E030E002C09C
:1002C000220F331F6A95E2F78223089540E064E02D
:1002D0008FEF0E94480182B9000080B160E08095F4
:1002E0000E945D01811180C080B161E080950E9413
:1002F0005D0181117BC080B162E080950E945D014B
:10030000811176C080B163E080950E945D0181110A
:1003100071C040E065E08FEF0E94480182B90000A3
:1003200080B160E080950E945D01811165C080B15F
:1003300061E080950E945D01811160C080B162E042
:1003400080950E945D0181115BC080B163E0809562
:100350000E945D01811156C040E066E08FEF0E946F
:10036000480182B9000080B160E080950E945D0183
:1003700081114AC080B161E080950E945D018111C8
:1003800045C080B162E080950E945D01811140C04E
:1003900080B163E080950E945D0181113BC040E027
:1003A00067E08FEF0E94480182B9000080B160E0F1
:1003B00080950E945D0181112FC080B161E0809520
:1003C0000E945D0181112AC080B162E080950E9487
:1003D0005D01811125C080B163E080950E945D01BF
:1003E0008823F9F084E4089581E3089584E308956F
:1003F00087E308958AE2089582E3089585E30895E6
:1004000088E3089580E3089583E3089586E30895DB
:1004100089E3089583E2089581E4089582E40895CC
:1004200083E408950F931F93CF93DF93B62FA72FE5
:10043000F82FE92F022F132FD42FC52F04C0062F1A
:10044000172FD82FC92F6B2F7A2F8F2F9E2F202F4A
:10045000312F4D2F5C2F0E948403B02FA12FFD2F31
:10046000EC2F611571058105910549F7602F712FFA
:100470008D2F9C2FDF91CF911F910F91089540E018
:1004800050E00CC000002F5F3F4F02C020E030E082
:10049000273063E03607B4F34F5F5F4F48175907C3
:1004A000ACF308959BB19F7B9BB988B98BB18068F1
:1004B0008BB900008BB18F778BB982E090E00E94FE
:1004C0003F02089581E00E9452020895813120F494
:1004D00081580E945202089581550E945202089547
:1004E00084E690E00E943F0288E30E94520286E088
:1004F0000E9452028FE00E94520281E00E9452024A
:100500008AE090E00E943F0208959BB190649BB9FD
:1005100088B98BB180688BB900008BB18F778BB9AC
:1005200081E090E00E943F020895EF92FF920F93C6
:100530001F93CF93DF93182FEB010E9462020EC02E
:1005400001E0010F812F0E9466027E018FEFE81A01
:10055000F80A88810E948502102FE70188818111A5
:10056000EFCFDF91CF911F910F91FF90EF90089502
:100570000E946202809100010E94660263E171E0C4
:10058000809100010E94950280910001815080932A
:10059000000180E090E008950E94660190E08534BB
:1005A0009105B0F5FC01EA5BFF4F0C94A60312B86D
:1005B00031C081E082B92EC082E082B92BC083E0D5
:1005C00082B928C08AE082B925C084E082B922C0FD
:1005D00085E082B91FC086E082B91CC08BE082B979
:1005E00019C087E082B916C088E082B913C089E0DB
:1005F00082B910C08CE082B90DC08EE082B90AC009
:1006000012B808C08FE082B905C08DE082B902C07F
:100610008BE182B980E090E00895CF93DF9300D022
:10062000CDB7DEB78FEF81B912B884B915B887B9E5
:1006300018B88AB91BB8EFE3F1E0FA83E9831082B6
:1006400088EC90E0A0E0B0E081839283A383B48340
:1006500085839683A783B08788EB92E09287818712
:100660000E9470020E94620262E370E080E090E00B
:100670000E94BD000E94CE0000E010E03BC0F801E7
:10068000EE0FFF1F81E090E08C0F9D1FE80FF91F18
:10069000E080F180D70115964D915D916D917C912F
:1006A000189711968D919D910D90BC91A02D481792
:1006B00059076A077B0781F4D7011996ED91FC91E0
:1006C0001A978C91082E000C990B0995F7018083DD
:1006D0001582168217821086F70185819681A7817F
:1006E000B085C296A11DB11D85839683A783B0876F
:1006F0000F5F1F4F0115110511F280913E018823F4
:10070000E1F310923E01B8CFA1E21A2EAA1BBB1B47
:10071000FD010DC0AA1FBB1FEE1FFF1FA217B307CD
:10072000E407F50720F0A21BB30BE40BF50B661FE3
:10073000771F881F991F1A9469F7609570958095A7
:1007400090959B01AC01BD01CF010895EE0FFF1FF5
:100750000024001C0BBE0790F691E02D0994F8943C
:02076000FFCFC9
:10076200250000000200000000AC000000000001B3
:10077200000000435331323042206973204C6567D8
:10078200656E642E2E2E207761697420666F72204A
:0A079200697420444152592100000F
:00000001FF
