:100000000C9446000C9465000C9465000C946500FB
:100010000C9465000C9465000C9465000C946500CC
:100020000C9465000C9465000C9465000C946500BC
:100030000C9465000C94B4000C9465000C9465005D
:100040000C9465000C9465000C9465000C9465009C
:100050000C9465000C9465000C9465000C9465008C
:100060000C9465000C9465000C9465000C9465007C
:100070000C9465000C9465000C9465000C9465006C
:100080000C9465000C9465000C94650011241FBE4F
:10009000CFEFD0E4DEBFCDBF11E0A0E0B1E0E8EFEC
:1000A000F3E000E00BBF02C007900D92A231B10750
:1000B000D9F721E0A2E1B1E001C01D92AC31B20755
:1000C000E1F70E94DA010C94FA010C940000CF933E
:1000D000C82F8A3019F48DE00E9467008091C0001B
:1000E00085FFFCCFC093C60080E090E0CF910895DB
:1000F00060930E0170930F01809310019093110192
:100100006093120170931301809314019093150171
:1001100008958BE0809381008DE790E090938900B3
:100120008093880082E080936F0010928500109287
:10013000840080910E0190910F01A0911001B09167
:1001400011018093120190931301A0931401B093B5
:1001500015018FB780688FBF0895109281000895B0
:1001600081E08093160108951F920F920FB60F92AF
:1001700011240BB60F922F933F934F935F936F937E
:100180007F938F939F93AF93BF93EF93FF93809150
:10019000120190911301A0911401B09115010197E2
:1001A000A109B1098093120190931301A093140146
:1001B000B0931501892B8A2B8B2B91F40E94B000F0
:1001C00080910E0190910F01A0911001B091110149
:1001D0008093120190931301A0931401B093150121
:1001E000FF91EF91BF91AF919F918F917F916F910F
:1001F0005F914F913F912F910F900BBE0F900FBECB
:100200000F901F90189590B181E08927817080939D
:100210001B0190B19095927090931A012091170153
:10022000309118012230310509F45BC038F42115F2
:10023000310571F02130310511F195C024303105BF
:1002400019F108F480C02530310509F44FC08BC086
:10025000882339F084E090E090931801809317018F
:1002600086C0992339F085E090E09093180180933F
:1002700017017DC0109218011092170178C01092DA
:1002800018011092170173C0882349F0992339F09F
:1002900083E090E0909318018093170168C0882351
:1002A000C9F0811107C00DC021E030E03093180182
:1002B0002093170190911601911159C08111F4CF2B
:1002C00056C084E090E090931801809317010E943B
:1002D00089004DC081E090E0909318018093170150
:1002E00046C0109218011092170141C0882349F0AE
:1002F000992339F083E090E09093180180931701DF
:1003000036C09923C9F0911107C00DC022E030E03A
:10031000309318012093170180911601811127C095
:100320009111F4CF24C085E090E090931801809360
:1003300017010E9489001BC082E090E09093180191
:100340008093170114C0811102C0992339F083E012
:1003500090E0909318018093170109C01092180142
:100360001092170104C01092180110921701809189
:100370001701909118018230910579F08330910531
:10038000B1F00197B1F480911901893018F48F5FB1
:100390008093190110921601089580911901882304
:1003A00019F081508093190110921601089510924E
:1003B0001901089511B88FEF82B987B918B864E6AA
:1003C00070E080E090E00E9478000E948900109226
:1003D00018011092170187E0809319010E94030110
:1003E0008091190188B9809116018823E1F3109258
:0803F0001601F4CFF894FFCFD1
:1003F800000000020000000067000000000001008B
:020408000000F2
:00000001FF
