:100000000C9446000C9465000C9465000C946500FB
:100010000C9465000C9465000C9465000C946500CC
:100020000C9465000C9465000C9465000C946500BC
:100030000C9465000C94B4000C9465000C9465005D
:100040000C9465000C9465000C9465000C9465009C
:100050000C9465000C9465000C9465000C9465008C
:100060000C9465000C9465000C9465000C9465007C
:100070000C9465000C9465000C9465000C9465006C
:100080000C9465000C9465000C94650011241FBE4F
:10009000CFEFD0E4DEBFCDBF11E0A0E0B1E0E6E5F8
:1000A000F3E000E00BBF02C007900D92A231B10750
:1000B000D9F721E0A2E1B1E001C01D92AA31B20757
:1000C000E1F70E948C010C94A9010C940000CF93DD
:1000D000C82F8A3019F48DE00E9467008091C0001B
:1000E00085FFFCCFC093C60080E090E0CF910895DB
:1000F00060930E0170930F01809310019093110192
:10010000609313017093140180931501909316016D
:1001100008958BE0809381008DE790E090938900B3
:100120008093880082E080936F0010928500109287
:10013000840080910E0190910F01A0911001B09167
:1001400011018093130190931401A0931501B093B2
:1001500016018FB780688FBF0895109281000895AF
:1001600081E08093170108951F920F920FB60F92AE
:1001700011240BB60F922F933F934F935F936F937E
:100180007F938F939F93AF93BF93EF93FF93809150
:10019000130190911401A0911501B09116010197DE
:1001A000A109B1098093130190931401A093150143
:1001B000B0931601892B8A2B8B2B91F40E94B000EF
:1001C00080910E0190910F01A0911001B091110149
:1001D0008093130190931401A0931501B09316011D
:1001E000FF91EF91BF91AF919F918F917F916F910F
:1001F0005F914F913F912F910F900BBE0F900FBECB
:100200000F901F90189580911801909119018230DC
:10021000910509F453C028F4009751F00197F1F1CA
:100220005DC084309105B1F050F0059721F156C0C2
:1002300083E090E0909319018093180153C080B13E
:1002400084E090E0909319018093180185E08093F9
:10025000120148C0009907C081E090E09093190115
:10026000809318013FC08091120190E09093190192
:100270008093180137C0009907C081E090E0909307
:100280001901809318012EC083E08093120184E04D
:1002900090E0909319018093180124C0009907C041
:1002A00082E090E090931901809318011BC081E0D7
:1002B00090E0909319018093180114C0009B07C02F
:1002C00083E090E090931901809318010BC082E0C5
:1002D00090E0909319018093180104C010921901C5
:1002E00010921801809118019091190183309105A5
:1002F00039F088F08430910531F0059739F009C064
:1003000081E088B9089582E088B9089584E088B9C9
:10031000089581E088B9089511B88FEF82B987B93F
:1003200018B866E970E080E090E00E9478000E94D2
:100330008900109219011092180180B18170809586
:100340000E940301809117018823E1F310921701A5
:06035000F4CFF894FFCF8A
:10035600000000020000000067000000000001002D
:02036600000095
:00000001FF
