:100000000C9446000C945D000C945D000C945D0013
:100010000C945D000C945D000C945D000C945D00EC
:100020000C945D000C945D000C945D000C945D00DC
:100030000C945D000C945D000C945D000C945D00CC
:100040000C945D000C945D000C945D000C945D00BC
:100050000C945D000C945D000C945D000C945D00AC
:100060000C945D000C945D000C945D000C945D009C
:100070000C945D000C945D000C945D000C945D008C
:100080000C945D000C945D000C945D0011241FBE67
:10009000CFEFD0E4DEBFCDBF11E0A0E0B1E0EAE2F7
:1000A000F1E000E00BBF02C007900D92AE30B10747
:1000B000D9F70E9470000C9493000C940000CF9329
:1000C000C82F8A3019F48DE00E945F009091C00023
:1000D00095FFFCCFC093C60080E090E0CF910895DB
:1000E00011B88FEF82B914B885B917B888B98AB931
:1000F0001BB81BB880B133B196B1282F230F920FD4
:10010000292F269526952BB92BB1220F220F2BB91B
:100110009D3808F0589A90E0831B9109813591052C
:0A01200044F3599AE6CFF894FFCF9C
:0E012A0000000002000000005F000000000066
:00000001FF
