:100000000C9446000C945D000C945D000C945D0013
:100010000C945D000C945D000C945D000C945D00EC
:100020000C945D000C945D000C945D000C945D00DC
:100030000C945D000C945D000C945D000C945D00CC
:100040000C945D000C945D000C945D000C945D00BC
:100050000C945D000C945D000C945D000C945D00AC
:100060000C945D000C945D000C945D000C945D009C
:100070000C945D000C945D000C945D000C945D008C
:100080000C945D000C945D000C945D0011241FBE67
:10009000CFEFD0E4DEBFCDBF11E0A0E0B1E0EEE6EF
:1000A000F1E000E00BBF02C007900D92AE30B10747
:1000B000D9F70E9470000C94B5000C940000CF9307
:1000C000C82F8A3019F48DE00E945F009091C00023
:1000D00095FFFCCFC093C60080E090E0CF910895DB
:1000E00011B88FEF82B984B915B890E080B1811151
:1000F00001C094E02FEF280F223028F0843029F03F
:10010000883031F404C093E003C093E001C093E071
:10011000833059F0853059F0863059F0893059F0E4
:100120008A3059F08C3061F40AC092E009C092E044
:1001300007C092E005C092E003C092E001C092E0E7
:10014000873039F08B3039F08D3039F08E3041F412
:1001500006C091E005C091E003C091E001C091E0CC
:0E0160008F3009F490E098B9C1CFF894FFCF2A
:0E016E0000000002000000005F000000000022
:00000001FF
