:100000000C9446000C9465000C9465000C946500FB
:100010000C9465000C9465000C9465000C946500CC
:100020000C9465000C9465000C9465000C946500BC
:100030000C9465000C942D010C9465000C946500E3
:100040000C9465000C9465000C9465000C9465009C
:100050000C9465000C9465000C9465000C9465008C
:100060000C9465000C9465000C9465000C9465007C
:100070000C9465000C9465000C9465000C9465006C
:100080000C9465000C9465000C94650011241FBE4F
:10009000CFEFD0E4DEBFCDBF11E0A0E0B1E0EAEDEC
:1000A000F4E000E00BBF02C007900D92A231B1074F
:1000B000D9F721E0A2E1B1E001C01D92A032B20760
:1000C000E1F70E9423020C946B020C94000040E0C4
:1000D00050E00CC000002F5F3F4F02C020E030E036
:1000E000273063E03607B4F34F5F5F4F4817590777
:1000F000ACF308959BB19F7B9BB988B98BB18068A5
:100100008BB900008BB18F778BB982E090E00E94B1
:100110006700089581E00E947A000895813120F4FB
:1001200081580E947A00089581550E947A000895AE
:1001300084E690E00E94670088E30E947A0086E0EF
:100140000E947A008FE00E947A0081E00E947A008B
:100150008AE090E00E94670008959BB190649BB98B
:1001600088B98BB180688BB900008BB18F778BB960
:1001700081E090E00E9467000895EF92FF920F9354
:100180001F93CF93DF93182FEB010E948A000EC0BC
:1001900001E0010F812F0E948E007E018FEFE81A8F
:1001A000F80A88810E94AD00102FE7018881811133
:1001B000EFCFDF91CF911F910F91FF90EF900895B6
:1001C000CF93C82F8A3019F48DE00E94E00080910F
:1001D000C00085FFFCCFC093C60080E090E0CF91C7
:1001E000089560930E0170930F0180931001909316
:1001F000110160931501709316018093170190937C
:10020000180108958BE0809381008DE790E0909332
:1002100089008093880082E080936F0010928500AF
:100220001092840080910E0190910F01A091100115
:10023000B09111018093150190931601A0931701BD
:10024000B09318018FB780688FBF08951092810016
:10025000089581E08093190108951F920F920FB6BF
:100260000F9211240BB60F922F933F934F935F93EE
:100270006F937F938F939F93AF93BF93EF93FF936E
:100280008091150190911601A0911701B09118016C
:100290000197A109B1098093150190931601A093CC
:1002A0001701B0931801892B8A2B8B2B91F40E9494
:1002B000290180910E0190910F01A0911001B09140
:1002C00011018093150190931601A0931701B0932B
:1002D0001801FF91EF91BF91AF919F918F917F9105
:1002E0006F915F914F913F912F910F900BBE0F90A7
:1002F0000FBE0F901F90189580911C0190911D01C9
:100300008130910559F018F0029779F013C081E01F
:1003100090E090931D0180931C0110C082E090E05A
:1003200090931D0180931C0109C010921D01109231
:100330001C0104C010921D0110921C0180911C012F
:1003400090911D018130910541F018F0029749F01C
:10035000089581E080931401089582E08093140150
:10036000089584E080931401089580911A0190917A
:100370001B01009719F0019741F00CC081E090E05B
:1003800090931B0180931A0109C010921B011092D7
:100390001A0104C010921B0110921A0180911A01D7
:1003A00090911B01009719F0019729F0089588E0BA
:1003B00080931301089510921301089590B181E084
:1003C000892781708093120120911E0130911F01B5
:1003D0002115310521F02130310541F00CC021E01B
:1003E00030E030931F0120931E0109C010921F01BD
:1003F00010921E0104C010921F0110921E01209144
:100400001E0130911F012115310521F021303105E8
:1004100091F00895811108C0909114018091130109
:10042000892B806185B90895909114018091130101
:10043000892B85B908959091140180911301892B1E
:10044000806185B9089511B88FEF82B984B915B864
:100450000E94020162E070E080E090E00E94F10002
:100460000F2EF8EE8F2EF3E09F2EA12CB12CF02D45
:100470000F2EFCE2CF2EDD24D394E12CF12CF02DB5
:100480008CE2C81681E0D806E104F10428F00E944D
:100490007C01C12CD12C760188EE881683E0980669
:1004A000A104B10428F00E94B501812C912C5401C3
:1004B0000E94DE01809119018823E1F31092190155
:1004C00082E0C80ED11CE11CF11C82E0880E911C58
:0A04D000A11CB11CD5CFF894FFCF9A
:1004DA000000000200000000E0000000000001002F
:0204EA00000010
:00000001FF
