:100000000C9446000C9465000C9465000C946500FB
:100010000C9465000C9465000C9465000C946500CC
:100020000C9465000C9465000C9465000C946500BC
:100030000C9465000C942D010C9465000C946500E3
:100040000C9465000C9465000C9465000C9465009C
:100050000C9465000C9465000C9465000C9465008C
:100060000C9465000C9465000C9465000C9465007C
:100070000C9465000C9465000C9465000C9465006C
:100080000C9465000C9465000C94650011241FBE4F
:10009000CFEFD0E4DEBFCDBF11E0A0E0B1E0E0EBF8
:1000A000F4E000E00BBF02C007900D92A231B1074F
:1000B000D9F721E0A2E1B1E001C01D92AF31B20752
:1000C000E1F70E940E020C9456020C94000040E0EE
:1000D00050E00CC000002F5F3F4F02C020E030E036
:1000E000273063E03607B4F34F5F5F4F4817590777
:1000F000ACF308959BB19F7B9BB988B98BB18068A5
:100100008BB900008BB18F778BB982E090E00E94B1
:100110006700089581E00E947A000895813120F4FB
:1001200081580E947A00089581550E947A000895AE
:1001300084E690E00E94670088E30E947A0086E0EF
:100140000E947A008FE00E947A0081E00E947A008B
:100150008AE090E00E94670008959BB190649BB98B
:1001600088B98BB180688BB900008BB18F778BB960
:1001700081E090E00E9467000895EF92FF920F9354
:100180001F93CF93DF93182FEB010E948A000EC0BC
:1001900001E0010F812F0E948E007E018FEFE81A8F
:1001A000F80A88810E94AD00102FE7018881811133
:1001B000EFCFDF91CF911F910F91FF90EF900895B6
:1001C000CF93C82F8A3019F48DE00E94E00080910F
:1001D000C00085FFFCCFC093C60080E090E0CF91C7
:1001E000089560930E0170930F0180931001909316
:1001F000110160931401709315018093160190937F
:10020000170108958BE0809381008DE790E0909333
:1002100089008093880082E080936F0010928500AF
:100220001092840080910E0190910F01A091100115
:10023000B09111018093140190931501A0931601C0
:10024000B09317018FB780688FBF08951092810017
:10025000089581E08093180108951F920F920FB6C0
:100260000F9211240BB60F922F933F934F935F93EE
:100270006F937F938F939F93AF93BF93EF93FF936E
:100280008091140190911501A0911601B091170170
:100290000197A109B1098093140190931501A093CE
:1002A0001601B0931701892B8A2B8B2B91F40E9496
:1002B000290180910E0190910F01A0911001B09140
:1002C00011018093140190931501A0931601B0932E
:1002D0001701FF91EF91BF91AF919F918F917F9106
:1002E0006F915F914F913F912F910F900BBE0F90A7
:1002F0000FBE0F901F90189580911B0190911C01CB
:100300008130910559F018F0029779F013C081E01F
:1003100090E090931C0180931B0110C082E090E05C
:1003200090931C0180931B0109C010921C01109234
:100330001B0104C010921C0110921B0180911B0133
:1003400090911C018130910541F018F0029749F01D
:10035000089581E080931301089582E08093130152
:10036000089584E08093130108958091190190917C
:100370001A01009719F0019741F00CC081E090E05C
:1003800090931A018093190109C010921A011092DA
:10039000190104C010921A011092190180911901DB
:1003A00090911A01009719F0019729F0089588E0BB
:1003B00080931201089510921201089580911D01F9
:1003C00090911E01009719F0019741F00CC081E057
:1003D00090E090931E0180931D0109C010921E01B0
:1003E00010921D0104C010921E0110921D018091F7
:1003F0001D0190911E01009719F0019741F0089599
:100400009091130180911201892B85B908959091E3
:10041000130180911201892B85B9089511B88FEFCE
:1004200082B984B915B80E94020162E070E080E0F0
:1004300090E00E94F1000F2EF8EE8F2EF3E09F2E39
:10044000A12CB12CF02D0F2EFCE2CF2EDD24D39465
:10045000E12CF12CF02D8CE2C81681E0D806E104E5
:10046000F10428F00E947C01C12CD12C760188EE89
:10047000881683E09806A104B10428F00E94B50113
:10048000812C912C54010E94DE0180911801882357
:10049000E1F31092180182E0C80ED11CE11CF11C9E
:1004A00082E0880E911CA11CB11CD5CFF894FFCF1F
:1004B0000000000200000000E00000000000010059
:0204C00000003A
:00000001FF
